{
  "contractName": "MyContract",
  "abi": [
    {
      "inputs": [],
      "name": "extValue",
      "outputs": [
        {
          "internalType": "uint256",
          "name": "",
          "type": "uint256"
        }
      ],
      "stateMutability": "view",
      "type": "function",
      "constant": true
    },
    {
      "inputs": [],
      "name": "value",
      "outputs": [
        {
          "internalType": "uint256",
          "name": "",
          "type": "uint256"
        }
      ],
      "stateMutability": "view",
      "type": "function",
      "constant": true
    },
    {
      "inputs": [
        {
          "internalType": "uint256",
          "name": "_value",
          "type": "uint256"
        }
      ],
      "name": "setValue",
      "outputs": [],
      "stateMutability": "nonpayable",
      "type": "function"
    },
    {
      "inputs": [
        {
          "internalType": "uint256",
          "name": "_extValue",
          "type": "uint256"
        }
      ],
      "name": "setExtVal",
      "outputs": [],
      "stateMutability": "nonpayable",
      "type": "function"
    },
    {
      "inputs": [],
      "name": "getValue",
      "outputs": [
        {
          "internalType": "uint256",
          "name": "_value",
          "type": "uint256"
        }
      ],
      "stateMutability": "view",
      "type": "function",
      "constant": true
    }
  ],
  "bytecode": "0x608060405234801561001057600080fd5b506101d6806100206000396000f3fe608060405234801561001057600080fd5b50600436106100575760003560e01c8063153107081461005c578063209652551461007a5780633fa4f2451461009857806355241077146100b6578063bd32911d146100d2575b600080fd5b6100646100ee565b6040516100719190610164565b60405180910390f35b6100826100f4565b60405161008f9190610164565b60405180910390f35b6100a06100fd565b6040516100ad9190610164565b60405180910390f35b6100d060048036038101906100cb919061012c565b610103565b005b6100ec60048036038101906100e7919061012c565b61010d565b005b60015481565b60008054905090565b60005481565b8060008190555050565b8060018190555050565b60008135905061012681610189565b92915050565b60006020828403121561013e57600080fd5b600061014c84828501610117565b91505092915050565b61015e8161017f565b82525050565b60006020820190506101796000830184610155565b92915050565b6000819050919050565b6101928161017f565b811461019d57600080fd5b5056fea26469706673582212200c181b3777b53816fde01c67a8bfbe4a659c04d836293bd2196e00ec7a1cf06264736f6c63430008000033",
  "immutableReferences": {},
  "source": "// SPDX-License-Identifier: GPL-3.0\r\npragma solidity ^0.8.0;\r\n\r\ncontract MyContract{\r\n\r\n    uint256 public value;\r\n    uint256 public extValue;\r\n\r\n    function setValue(uint256 _value) public {\r\n        value = _value;\r\n    }\r\n\r\n    function setExtVal(uint256 _extValue) external {\r\n        extValue = _extValue;\r\n    }\r\n    function getValue() public view returns (uint256 _value){\r\n        return value;\r\n    }\r\n}",
  "sourcePath": "F:/Binance Smart Chain/contracts/MyContract.sol",
  "compiler": {
    "name": "solc",
    "version": "0.8.0+commit.c7dfd78e.Emscripten.clang"
  },
  "schemaVersion": "3.4.1",
  "updatedAt": "2021-05-19T02:40:35.094Z",
  "networkType": "ethereum",
  "devdoc": {
    "kind": "dev",
    "methods": {},
    "version": 1
  },
  "userdoc": {
    "kind": "user",
    "methods": {},
    "version": 1
  }
}